:020000040800F2
:1000000000040020470100082D1500082F150008E6
:1000100031150008331500083515000800000000F0
:10002000000000000000000000000000391500087A
:1000300037150008000000003B1500083D150008BA
:100040006701000867010008670100084B150008F8
:1000500067010008670100086701000867010008E0
:1000600067010008670100086701000867010008D0
:1000700067010008670100086701000867010008C0
:1000800067010008670100086701000867010008B0
:1000900067010008670100086701000867010008A0
:1000A0006701000867010008670100086701000890
:1000B0006701000867010008670100086701000880
:1000C0006701000867010008670100086701000870
:1000D0006701000893150008670100086701000820
:1000E0006701000867010008670100086701000850
:1000F0006701000867010008670100086701000840
:10010000670100086701000867010008670100082F
:10011000670100086701000867010008670100081F
:10012000670100086701000867010008670100080F
:10013000DFF80CD002F03EF900480047DD1300085C
:1001400000850020704708488047084981F30888E7
:1001500007480047FEE7FEE7FEE7FEE7FEE7FEE7AB
:10016000FEE7FEE7FEE7FEE7450100080085002008
:100170003101000870B50F24C278017801254FF0D5
:10018000E026DAB1154A126802F4E062C2F5E062D4
:10019000120AC2F10403D44042789A408378234083
:1001A00013431A010E4BCA54007800F01F018D4012
:1001B000400906EB8000C0F8005170BD01F01F003F
:1001C0008540480906EB8000C0F8805170BD054AA3
:1001D000114001430148001F016070470CED00E031
:1001E00000E400E080FFFF1F10B5012000F052FA8C
:1001F000BDE81040002000F04DBA00003A4A1168F6
:1002000001F0380101431160704737490A6822F054
:1002100010020A600A6802430A6070473248334994
:1002200041603349416070472F490420CA68D207B2
:1002300001D001207047CA68520701D502207047DB
:10024000C968C906FBD50320704700B50346FFF710
:10025000EBFF05E0FF21491EFDD1FFF7E5FF5B1E27
:10026000012803D0002B00D1052000BD002BF1D1C7
:10027000FAE770B5054640F6FF763046FFF7E5FF32
:10028000042813D1184C206940F0020020616561F8
:10029000206940F0400020613046FFF7D6FF01287A
:1002A00004D0216941F6FD721140216170BD70B525
:1002B00005460E460F20FFF7C8FF04280FD10A4C51
:1002C000206940F0010020612E800F20FFF7BDFF64
:1002D000012804D0216941F6FE721140216170BDF0
:1002E0000149C860704700000020024023016745B3
:1002F000AB89EFCD30B5D0E901121143D0E903232A
:100300001A43114342690368114382691143C26968
:100310001143026A1143426A1143826A1143C26A5D
:1003200011434FF0204242F823108168082906D17A
:10033000016802EB81010B6843F040030B60016B25
:10034000D1E9003443EA04138C68CD68240244EAFE
:10035000054423430C6943EA04534C69896943EA21
:1003600004630B43016802EB81014B60816AB1F5C4
:10037000804F07D000686FF0704102EB8000C0F83A
:10038000041130BD416B0068D1E9003443EA041325
:100390008C680D69240244EA055423434C69896939
:1003A00043EA046302EB80000B43C0F8043130BD24
:1003B0004FF0204202EB80000029016802D041F09A
:1003C000010101E0014A114001607047FEFF0F008A
:1003D000F0B5CC78002204F00F03E40601D58C7848
:1003E00023430C884FF00F0C14F0FF0F4FF0010E59
:1003F0001AD005680E880EFA02F42640A6420FD1E4
:1004000096000CFA06F7BD4303FA06F63543CE789C
:10041000282E02D0482E02D002E0446100E00461A0
:10042000521C082AE6D305600A88FF2A1DD94568B0
:10043000002202F108060EFA06F40E882640A642B3
:100440000FD196000CFA06F725EA070703FA06F51E
:10045000CE783D43282E00D14461CE78482E00D17D
:100460000461521C082AE4D34560F0BD0246002016
:1004700092680A4200D00120704702460020D268EC
:100480000A4200D001207047016170474161704706
:100490000AB101617047416170470000014908627B
:1004A0007047000000000E427F48016841F00101E2
:1004B000016041687D4A1140416001687C4A1140F9
:1004C0000160016821F480210160416821F4FE018E
:1004D000416000218160704773490A6822F48032CC
:1004E0000A600A6822F480220A60B0F5803F07D0D3
:1004F000B0F5802F03D1086840F4A0200860704751
:10050000086840F48030F9E7034600205909664A3C
:1005100001290AD002290AD0516A03F01F020123DF
:1005200093400B4200D0012070471168F5E7116A33
:10053000F3E730B500244FF4A0653120FFF7E4FF66
:10054000641C08B9AC42F8D13120FFF7DDFF002868
:1005500000D0012030BD544B5A68084322F47C126D
:100560001043586070475349086670474E4A5168B7
:1005700021F003010143516070474B48406800F08F
:100580000C007047484A516821F0F0010143516066
:100590007047454A516821F4E0610143516070475A
:1005A000414A516821F4605141EAC00050607047EF
:1005B000414900220A7001F82029012802D00428AC
:1005C00002D1052081F82000704737490A6A0243AA
:1005D0000A627047394908607047334A10B551685C
:1005E000374B11F00C0103D0042901D0082901D0A8
:1005F000036011E05168022301F4701103EB914193
:10060000536813F4803F02D053689B0301D52D4BF0
:1006100000E02B4B5943016051682B4B01F0F00176
:1006200009095C5C0168E1404160546804F4E064DD
:10063000240A1C5D21FA04F48460546804F46054B4
:10064000E40A1B5DD940C16052681F4B02F440426E
:10065000920B1B1F9A5CB1FBF2F1016110BD124AB3
:100660000029516901D0014300E081435161704785
:100670000D4A0029916901D0014300E08143916155
:100680007047094A0029D16901D0014300E0814344
:10069000D16170470949091D086070470248416AE5
:1006A00041F0807141627047001002400000FFF885
:1006B000FFFFF6FE00004242201002403C0442428E
:1006C00000127A0000093D00040000202F4A002992
:1006D000118801D0014300E08143118070472B480D
:1006E000001D018841F01001018070472748001D5E
:1006F000018821F010010180704724481C300088D7
:1007000022491831098840EA0140704700B5024685
:10071000FFF7E5FF1D49100C18310880081D028005
:100720005DF804EBE2E700B50246FFF7D8FF174992
:10073000C2F3034008310880081D02805DF804EB15
:10074000D4E71248001D01888906FCD570470F4880
:10075000001D018821F00801018001880907FCD5EE
:1007600070470A49091D0988084A0140C9B2128820
:10077000024202D009B101207047002070470349AE
:10078000091D0A8882430A80704700000028004043
:10079000028802F08F020280CA884B881A430388BD
:1007A0001A4302808A8882850A8802850C4A904210
:1007B00002D00C4A904201D1097A0186012181823E
:1007C00070470029018802D041F0010102E040F2A7
:1007D000FE3211400180704781847047808C7047E1
:1007E000002C01400034014030B50446008A85B039
:1007F0000D464CF6FF710840E98801432182A1892A
:100800004EF6F3100140A8882A8910436A890A43EA
:100810001043A081A08A4FF6FF410840A9890143F7
:10082000A1826846FFF7D9FE3A48844201D1039875
:1008300000E00298642200EBC00101EB001029687F
:100840006FF018058900B0FBF1F0B0FBF2F109017F
:100850000B096B4300EB8300322303EB0010B0FB6A
:10086000F2F000F00F000843208105B030BD0029F0
:10087000818902D041F4005101E021F400518181CD
:10088000704710B5C1F3421301F01F040121A140CC
:10089000012B07D0022B07D01430002A026805D0A4
:1008A0000A4304E00C30F8E71030F6E78A430260B0
:1008B00010BDC1F30801818070478088C0F3080033
:1008C00070470246002012880A4200D0012070477B
:1008D000C9430180704770B501F01F06012500244F
:1008E000C1F3421305FA06F2012B0FD0022B0FD0F1
:1008F000838A4FEA11210088134205FA01F500EAC4
:10090000050001D000B10124204670BD8389F0E7C5
:10091000038AEEE7003801402DE9F04105680168DF
:100920008068042701EB4004FFF778FC601BC60ACF
:1009300000D101263520FFF7D3FC002405E005EBAC
:10094000C420FFF796FC0746641CB44201D2042F72
:10095000F5D0BDE8F08170B50446002504200BE019
:100960002068E168084404EB4501098AFFF79FFC11
:10097000E168891CE1606D1CA168A94201D90428C5
:10098000EED070BD00B597B002200F900020052179
:10099000CDE910014FF08051CDE9140112900821EA
:1009A000CDE9020113901021CDE9041001900690C9
:1009B00009020790CDE908010A900B900C900FA84E
:1009C0000D900E9001A8FFF795FC01210020FFF784
:1009D000EFFC17B000BD000070B5F6484FF47A7117
:1009E0000068B0FBF1F0B0F1807F14D220F07F40BE
:1009F0004FF0E024401E606165170F21284600F08B
:100A0000CDF90020A061072020612846BDE8704094
:100A1000002100F0C3B9FEE708B500214FF00060E7
:100A2000FFF7D5FB25208DF8000000208DF8010090
:100A30008DF8020001208DF803006846FFF79AFB4D
:100A400008BD38B503208DF802004FF40070ADF8F2
:100A500000001820D84C8DF8030069462046FFF7A7
:100A6000B7FC2115ADF8001004218DF8031069467C
:100A70002046FFF7ADFC38BD1FB5012144F204004C
:100A8000FFF7F6FDFFF7C8FFFFF7DBFF4FF4E1309C
:100A900000900020ADF80400ADF80600ADF80800A5
:100AA000ADF80C000C20C54CADF80A006946204694
:100AB000FFF79AFE012240F225512046FFF7E1FEA2
:100AC00001212046FFF7D3FE40212046FFF700FF1B
:100AD0001FBDF8B503248DF8024001217820FFF7EF
:100AE000C7FD0220ADF800001026B54F8DF8036059
:100AF0008DF8024069463846FFF76AFC8025ADF85C
:100B000000508DF803608DF802406946AD48FFF74C
:100B10005FFC4CF23370ADF800008DF802401820F5
:100B2000A94C8DF8030069462046FFF751FC4FF6AB
:100B30008070ADF8000069463846FFF749FCADF813
:100B4000005069462046FFF743FCE014ADF8000072
:100B500069462046FFF73CFC80212046FFF794FCC5
:100B60004CF203012046FFF78FFC4FF4F06138464A
:100B7000FFF78AFC02213846FFF788FC1021204647
:100B8000FFF782FC20212046FFF77EFC61142046FF
:100B9000FFF77AFCF8BD10B5FFF79BFF0121BDE818
:100BA00010400802FFF75BBD10B501214FF0C050A7
:100BB000FFF767FD0120FFF771FCFFF715FB012030
:100BC000FFF7F6FC4120FFF79FFC0028FAD04FF416
:100BD0008070FFF7FAFC0120FFF7FCFCFFF7B7FD80
:100BE000FFF7AFFD01210846FFF770FDFFF7A9FDF4
:100BF00047F6FF70FFF797FDBDE81040FFF7A1BD76
:100C000010B5FFF751FC4FF480342046FFF764FC29
:100C1000FFF78FFC012822D10020FFF7B3FC002052
:100C2000FFF7BEFCA011FFF7B4FC0220FFF7E6FAC5
:100C30001020FFF7EAFA4FF4E0112046FFF78BFC93
:100C40000120FFF790FC3920FFF75EFC0028FAD066
:100C50000220FFF78BFCFFF790FC0828FBD110BDAA
:100C60002DE9F04701217C20FFF702FD574C0325B9
:100C70001026A57026801820DFF84891E0702146E4
:100C80004846FFF7A5FBA57025800427E77021469D
:100C90004948FFF79DFBA57030202080DFF82081B8
:100CA000E77021464046FFF793FB40272780E67018
:100CB000A57021464046FFF78BFB20202080E67080
:100CC000A57021464248FFF783FB278021463E4816
:100CD000FFF77EFB0120208021464046FFF778FB8E
:100CE000A570E8012080E67021464846BDE8F0473F
:100CF000FFF76EBB2DE9F0410446364D364E042712
:100D0000FFF78CFA701BC60A3520FFF7E9FA012CB1
:100D10000BD1002405E005EBC420FFF7AAFA074633
:100D2000641CB44201D2042FF5D0BDE8F0810EB5A9
:100D300001210846FFF7A5FC0120ADF8040048207A
:100D4000ADF800000020ADF806001020ADF802005C
:100D500069468006FFF71CFD0EBD10B504468006EF
:100D600001D5FFF74DFF200701D5FFF714FFE0067F
:100D700002D50020FFF7BEFFE00701D0FFF770FFAC
:100D8000600701D5FFF778FE200601D5FFF724FEA6
:100D9000E00502D5BDE81040C9E710BD0907090EFE
:100DA000002803DA00F00F000C4A00E00C4A8154DE
:100DB000704700005424000800080140003801403A
:100DC00000180140001001400014014014000020F0
:100DD000000C01400000040838AB050814ED00E0E9
:100DE00000E400E0A249088070472DE9F04F362466
:100DF0002607DDF8248034709D4C2A274FF02B0BFA
:100E00004FEA122A4FEA1329B8F14C0F18D0B8F163
:100E10006C0F15D00D0A4FEA102CB8F1520F1DD0EF
:100E2000B8F1720F1AD0B8F1440F2DD0B8F1640F99
:100E30002AD0B8F1550F3ED0B8F1750F3BD04CE039
:100E4000082525703770C1F1EF010D122570217052
:100E5000C0F1EF0001122170207036E04FF0C80899
:100E600084F80080377084F800C0207025702170ED
:100E700086F800B0A3F23F1358420112217020708F
:100E8000A2F23F12504212E04FF0280884F800808E
:100E9000377084F800C020702570217086F800B08B
:100EA000C3F1EF00011221702070C2F1EF000112B6
:100EB0002170207011E04FF0680884F800803770CE
:100EC00084F800C020702570217086F800B084F886
:100ED00000A0227084F8009023702C203070BDE8B0
:100EE000F08F10B5634C02212046FFF7CDFA0120A8
:100EF00000F063FA02212046FFF7C8FA0A2000F04A
:100F00005CFA02212046FFF7BFFABDE810407820C6
:100F100000F053BA10B5FFF7E4FF4FF0C044CF2004
:100F2000207053480021017081210170302101702F
:100F3000ED212170642101700321017012210170E3
:100F400081210170E821217085210170112101703A
:100F500078210170CB212170392101702C21017081
:100F6000002101703421017002210170F7212170EC
:100F700020210170EA212170002101700170B62149
:100F800021700A210170A2210170C021217021214C
:100F90000170C121217011210170C52121704521ED
:100FA00001700170C7212170A221017036212170CA
:100FB000C82101703A21217055210170B1212170A1
:100FC0000021017018210170F221217000210170AF
:100FD0002621217001210170E02121700F21017073
:100FE0001A210170182101700C210170102101706B
:100FF0000821017045210170BA2101703021017072
:1010000002210170002101700170017001700170F6
:10101000E12121700021017024210170272101703C
:10102000032101700E210170062101703A21017027
:10103000452101704F2101700D2101701F210170A8
:101040000F2101703F21017001700F2101703220CA
:1010500000F0B3F911202070782000F0AEF92920BB
:10106000207010BD0978007800EB01207047000067
:10107000000002600018014038B51020ADF80000F3
:1010800003208DF8020004204D4C8DF803006946C2
:101090002046FFF79DF910212046FFF7F5F938BDEE
:1010A00008B51020ADF8000003208DF802001420D0
:1010B0008DF8030069464248FFF78AF908BD10B56C
:1010C000002000F030F9FFF7EBFF3D4C10212046E7
:1010D000FFF7DCF94FF4F07000F025F910212046FD
:1010E000FFF7D2F9462000F01EF9FFF7C5FF1021E7
:1010F0002046FFF7BBF980F001044FF4CD7000F0FB
:1011000012F9204610BD70B50446FFF7C9FF2C4DFB
:101110004FF01001284654B1FFF7B8F9062000F04F
:1011200002F910212846FFF7AFF9402009E0FFF748
:10113000ADF93C2000F0F7F810212846FFF7A4F99C
:101140000A20BDE8704000F0EEB810B5FFF7A8FF28
:101150001B4C10212046FFF799F9062000F0E3F818
:1011600010212046FFF790F9092000F0DCF8FFF786
:1011700083FF10212046FFF779F900F001043720A2
:1011800000F0D1F8204610BD70B50546002405F0EA
:101190000100FFF7B8FF641C6D08E4B2082CF6D319
:1011A00070BD70B5002425466408FFF7CEFF08B176
:1011B00044F080046D1CEDB2082DF5D3204670BDBF
:1011C0000010014010B5C24C4FF6FF71E06858B1F5
:1011D0000020E060A4F1200000F0DAFD2046BDE828
:1011E0001040BC4900F0C7BCB9480B464FF47842E8
:1011F000B9A1203800F005FFBA49B54800F0BBFCA2
:10120000E068401CE06010BD10B5B14CE0680528F6
:1012100001D10020E060AF4900EBC00001EB4021AC
:10122000AB4800F0A8FCE068401CE06010BDAE4A8E
:1012300000209072A2F58051087008710881C88062
:101240008870C870D072704700F063BCA04810B5B9
:101250004FF6FF71103000F09BFD0122BDE81040F9
:101260004021A248FFF714B910B500F0AFFB0023EE
:101270009F4A1946184600F09DFB012100239D4A14
:10128000084600F097FB00239B4A0221012000F052
:1012900091FB0023994A0421184600F08BFB0023A0
:1012A000974A0321184600F085FB002205231146CA
:1012B000012000F0A3FB00230A221946184600F083
:1012C0009DFB002205231146022000F097FB00231E
:1012D0001E221946042000F091FB00230222194629
:1012E000032000F08BFBBDE81040012000F0A6BBFE
:1012F00010B5FFF726FA0020FFF708FABDE8104006
:10130000FFF71FBA10B5FFF74FFCFFF7F1FFFFF72C
:101310001EFA01210846FFF7D9F9FFF712FABDE8D6
:101320001040FFF7BBB970B5012104468D07284670
:10133000FFF747FA21462846FFF74EFA03E0284612
:10134000FFF74CFA0446012CF9D82846BDE8704056
:101350000021FFF736BA70B50024FFF7B0FE002871
:101360000DD03320FFF710FF664DFFF71AFF285509
:101370001420FFF7D8FF641CE4B2082CF5D370BD2D
:101380007CB50024FFF79BFE00280FD03320FFF729
:10139000FBFE6D465C4EFFF704FF28551420FFF757
:1013A000C2FF285D315D884201D000207CBD641CF5
:1013B000E4B2082CEFD301207CBD45498839486050
:1013C00048680028FCD17047002240214748FFF7B9
:1013D0005FB8012240214548FFF75AB840F2FD109E
:1013E000FFF7BBFCFFF7F5FF00F088FEFFF73CFFBF
:1013F00000F09BFB454800F07DF94FF6FF74204656
:1014000000F066FB32492031A1F1A00000F098FB0A
:101410003F49A1F5855000F07DFC2D483D496038DD
:1014200000F078FC2A483C49503800F073FC28480A
:101430003949503800F06EFC25483849403800F0F2
:1014400069FC23482346002235A1303800F0D9FD3D
:10145000FFF758FF1E4C344F0125883C022600F050
:101460000EFAFFF778FFFFF78BFF012802D12078F3
:10147000022803D0FFF784FF88B114E0042000F0B5
:10148000DDFA00F03AFB12483946103000F073FBE9
:101490002570FFF799FF032000F0D0FA03E02078D1
:1014A000012800D12670002000F0DAFAFFF725F9B4
:1014B0000749103900F0BBFD00F042FFCFE70448B8
:1014C00088384168002902D04168491E4160704750
:1014D000B0000020423B0008BFF3B5C6B9CAD5CF63
:1014E0000000000042A700085481002000180140BD
:1014F0002F12000809120008C5110008491200083F
:101500004D12000849710020417100202051002037
:10151000E0100020F02000200031002010410020C9
:10152000D7B4CCACA3BA000042CB00087047FEE7AA
:10153000FEE7FEE7FEE770477047704710B500F022
:10154000B2FABDE81040FFF7BABF10B50120FFF7AF
:1015500008F900281CD00120FFF711F94E4C40215A
:101560002046FEF78AFFC0F10100C2B240212046AA
:10157000FEF78EFFFFF7E5F8FFF7BFF8474988420F
:1015800006D10020FFF7C2F8BDE81040FFF7D9B838
:1015900010BD2DE9F041424E40F225513046FFF793
:1015A0009AF9002408B33046FFF787F9C1B23D48E5
:1015B00002780123062A47D2DFE802F0030D101A51
:1015C0002E3F7E2940D10370002000F00DFA00204C
:1015D00000F034FA38E04170022105E0012905D01D
:1015E000C2788270C170032101702DE08370F9E729
:1015F0000279012AC28801EB0221C18003D001795E
:10160000491C017120E0C188B1F5805F00D9C38019
:1016100004210170047117E00289521C02810389C0
:10162000C588204A0932AB4204D103899954048108
:101630000521D9E70089815406E01B4A91720470A4
:10164000D372002000F003FA40F227773946304683
:10165000FFF741F900281DD040213046FFF738F947
:10166000134D12492878095C401C28703046FFF75A
:1016700020F940213046FFF724F90028F9D00D4920
:1016800028780978884205D1002239463046FFF78C
:10169000F8F82C70BDE8F081001C01408051010079
:1016A00000380140547100205481002019000020AE
:1016B00040710020180000200021072819D2DFE81F
:1016C00000F01804080B0E111400A748C160A748C9
:1016D0000DE0A748C1600AE0A648C16007E0A6483F
:1016E000C16004E0A548C16001E0A548C160FFF702
:1016F00013B9704730B501680020A24A04230C8852
:1017000002EB4005240A02F8104031F8024B401C5D
:101710006C709842F3D330BD062815D2DFE800F094
:101720001403070A0D109049974800F009BA904930
:10173000964807E08F49964804E08F49954801E0B4
:101740008E49954800F0E6BA70474FF6FF710628BB
:1017500010D2DFE800F00F0306080A0C8A4800F0F8
:1017600017BB8A4804E08A4802E08A4800E08A48B9
:1017700000F067BB70472DE9F041884D0646002414
:10178000A5F10B0709E02946681CAD1CFFF76AFCB0
:1017900006EB4401641C0882A4B2F888401E00EBEA
:1017A000D070B4EB600FEEDBF8887D49401E084036
:1017B00001280AD0F888401E00EBD0704010B060BD
:1017C0003046BDE8F041FFF7C6B82878FF2141EA6E
:1017D000002006EB44010882F888401E00EBD07020
:1017E000012101EB6000EAE76C480B38807A07289A
:1017F00011D2DFE800F0100406080A0C0E005A4867
:1018000008E05B4806E05B4804E05B4802E05B48B8
:1018100000E05B48AFE770470020604A01460B3AA2
:1018200005E05318491C9B7A89B21844C0B2D3888A
:101830008B42F6D8704710B5584C0B3C6078D0B14D
:101840006078062817D86078062815D060780228B6
:1018500012D0607805280FD0FFF7DEFF04F5805125
:10186000897A884207D1E078012806D0E178A0780B
:10187000401C814201D0042010BD032010BD2DE981
:10188000F05F484CE07A01282AD1FFF7D4FF801E90
:10189000DFF81481454D00274FF005094FF0030A8A
:1018A00040F2277BA4F58056052819D2DFE800F026
:1018B0001A0308343C00FFF797FF88F8009030E0E7
:1018C00088F8009004206870F078A870B07A2871C9
:1018D0006F7144E0012259463548FEF7D2FFE772A6
:1018E000BDE8F09F88F80090B07AFFF72EFFB07A3D
:1018F000FFF712FFB07A062802D12148FFF7FAFE5F
:1019000085F801A0F078A870B07A28716F713771EE
:101910003781F780F770DDE788F80090B07AFFF73D
:10192000CBFE85F801A0CFE70D2188F8001085F8DF
:1019300001A0F078A870B07A2871124808300178B8
:1019400069714178A9718178E971C1782972017949
:1019500069724179A9728179E972C0792873377106
:101960003781F780B6E70000D0000020306100200A
:10197000E0100020F0200020003100201041002065
:101980002051002041710020300000204000002044
:101990005000002060000020700000205F710020D7
:1019A0000100008054810020180000201900002050
:1019B0000038014010B5142907D2444C01EB8101D5
:1019C00004EB8101C1E90323887010BD3F48002169
:1019D0000A460270427042608260C260491C143044
:1019E000C9B21429F5D37047142806D2374900EB41
:1019F000800001EB800081684160704710B51428B9
:101A000011D2324C00EB800004EB80004FF41674CE
:101A1000614302EB820201EB4201194489B2642264
:101A200051438160416010BD142806D2274A00EB63
:101A3000800002EB8000816041607047142805D26D
:101A4000224A00EB8000012102F820107047142880
:101A500005D21E4A00EB8000002102F820107047DA
:101A600070B51A4C00252E462078012815D16078D3
:101A7000012812D1D4E9031079B188476670A068B3
:101A800081B22846FFF7D0FF2846FFF7E0FFA07895
:101A9000012802D12846FFF7D1FF6D1C1434EDB2A6
:101AA000142DE1D370BD0948002101230278012AD9
:101AB00005D142681AB1521E426000D14370491CE0
:101AC0001430C9B21429F1D370470000608100209E
:101AD000F8B50646002455200090EF23224640F238
:101AE0003F112046FFF781F94FF496353046FFF756
:101AF00079F9641CAC42F9D3F8BD10B5FB4C8021D8
:101B00002046FEF7C1FCA1152046BDE81040FEF7B7
:101B1000BBBC10B5F54C80212046FEF7B5FCA115E5
:101B20002046BDE81040FEF7B1BC10B58021EF485B
:101B3000FEF7AAFCFEF726FFBDE81040FFF7EAB962
:101B4000F8B50C688188B0F800C0C3884288A1EB62
:101B50000C069F1A007A7E4300900025B6B26046BC
:101B6000FFF743F904E02088FFF73CF9A41C6D1C43
:101B7000B542F8D3F8BDF8B50C4681880588C3880E
:101B800042884E1B9F1A007A7E430090B6B22846C8
:101B9000FFF72BF9002508E02146601CA41CFFF785
:101BA00061FAFFF71FF96D1CADB2B542F4D3F8BD71
:101BB00010B503880022CC24B4EB132F14D10B7181
:101BC000801C0BE003888C181B0A6371521CD2B274
:101BD0008C1830F8023B521C6371D2B20B799342DD
:101BE000F0D80860012010BD002010BD2DE9F84F8D
:101BF00012889946120A203A02EB42021205170C8B
:101C00005522DDF828A00B46173900928AB200F160
:101C10000F0189B2FFF7E9F8DFF8D482002507EB5E
:101C20000501E80718F801404FF000060DD1200625
:101C300001D5484600E05046FFF7D4F86006761C10
:101C4000040EF6B2082EF2D30CE0200601D5484669
:101C500000E05046FFF7C6F86006761C040EF6B2A8
:101C6000082EF2D36D1CEDB2302DD8D3BDE8F88F1D
:101C70002DE9F8431D460B4617390092DDE9088926
:101C80008AB200F1170189B2FFF7AFF80026F0071A
:101C9000288805D0C7B20024380612D5404611E086
:101CA0004FEA10270024380601D5404600E0484698
:101CB000FFF798F87806641C070EA4B2082CF2D33C
:101CC00009E04846FFF78EF87806641C070EA4B2B8
:101CD000082CE1D3AD1C761CB6B2482ED7D3BDE894
:101CE000F883F8B51E460B46173900928AB200F108
:101CF000170189B2FFF779F8002500243046FFF775
:101D000071F8641CA4B2082CF8D36D1CADB2482D38
:101D1000F3D3F8BD2DE9F04306460868C5B00025A9
:101D20003488B6F8029002A9FFF742FF00282CD0B1
:101D30000DF108084FF6FF7723E008EB0500407926
:101D4000DD2802D0EE280CD019E000970023494688
:101D50002046029AFFF74AFF02982430103402907E
:101D60000CE00020CDE90007327A49462046029B6C
:101D7000FFF77EFF0298483018340290A4B26D1C21
:101D8000EDB29DF80C00A842D7D845B0BDE8F0836D
:101D9000F8B50446007A002555270E46752801D06F
:101DA00055280DD10097E3886288A1882088FFF725
:101DB0001CF8A0882188451AE0886188401A4543AC
:101DC000207A4C2801D06C280DD100976388E288D6
:101DD000A1882088FFF709F8A0882188451A608823
:101DE000E188401A4543207A522801D072280CD14C
:101DF0000097E38862882188A088FEF7F6FFE088D4
:101E00002188451A6188081A4543207A442801D060
:101E100064280DD100976388E2882188A088FEF7A6
:101E2000E4FF2088A188451A6088E188401A45436C
:101E3000002403E03046FEF7D5FF641CAC42F9D322
:101E4000F8BD2DE9F04105884788064600244FF685
:101E5000FF78327A434639462846FFF742FF183565
:101E6000641CE4B2ADB2082CF3D3BDE8F0812DE9D7
:101E7000F84F103202EB4202994617015522DDF865
:101E800028A00B46173900928AB200F10F0189B2DF
:101E9000FEF7ABFFDFF85880002507EB0501E807E8
:101EA00018F801404FF000060DD1200601D5484634
:101EB00000E05046FEF796FF6006761C040EF6B270
:101EC000082EF2D30CE0200601D5484600E050462B
:101ED000FEF788FF6006761C040EF6B2082EF2D3D9
:101EE0006D1CEDB2302DD8D3C0E6000000100140CB
:101EF000422900082DE9F84F203A02EB4202120570
:101F00009946170C5522DDF828A00B461739009288
:101F10008AB200F10F0189B2FEF767FFDFF8D481C2
:101F2000002507EB0501E80718F801404FF000060F
:101F30000DD1200601D5484600E05046FEF752FF7D
:101F40006006761C040EF6B2082EF2D30CE02006D2
:101F500001D5484600E05046FEF744FF6006761C77
:101F6000040EF6B2082EF2D36D1CEDB2302DD8D38C
:101F70007CE62DE9FF4F89469346C168028881B00F
:101F8000438801EB4101007A02EBC1010090A3F10B
:101F900017008CB282B204F1170081B22046FEF71E
:101FA00024FFDFF854A1002707EB870000EB47115F
:101FB0000AEB410899F9000098F9001081421AD102
:101FC00098F9011099F90100814214D1002608EB1B
:101FD00006004FF000048578280601D5584600E039
:101FE0000498FEF7FFFE6806050E641C082CF3D368
:101FF000761C482EEBD37F1C402FD5D305B0BDE80F
:10200000F08F2DE9F04105460C4616461F4600208C
:1020100008E03B46324621462846FFF7AAFFE8681B
:10202000A41C401CE86020780028F2D11DE72DE9AF
:10203000F84F0C464FF46161B0FBF1F701FB17015B
:102040003C22B1FBF2F80A26B7FBF6FA02FB18199C
:102050004FF6FF7500950AF0FF0261882088002383
:10206000FFF705FF0095208806FB1A721030618883
:1020700080B20023FFF7FBFE0095208861882030A6
:1020800080B200233A22FFF735FFB8FBF6F7009540
:102090002088FAB23030618880B20023FFF7E7FE73
:1020A0000095208806FB17824030618880B20023AB
:1020B000FFF7DDFE009520886188503080B2002354
:1020C0003A22FFF717FFB9FBF6F700952088FAB21E
:1020D0006030618880B20023FFF7C9FE0095208838
:1020E00006FB17927030618880B20023FFF7BFFEB5
:1020F000BCE5000042290008582400089C48002143
:102100008170C170704770B59A4C9B4D9B4E0128F1
:1021100011D002281DD003284FF000024FF02001FB
:10212000284624D0FEF7B4F9002240213046FEF7BD
:10213000AFF9002223E0002201212046FEF7A8F992
:10214000002220212846FEF7A3F901224021304633
:1021500017E0002201212046FEF79AF900224021D3
:102160003046FEF795F901222021284609E0FEF7C6
:102170008FF9002240213046FEF78AF90122012121
:102180002046BDE87040FEF783B970B504464FF6AF
:10219000FF7529467A48FFF7FBFD012C0DD0022C74
:1021A00015D0032C21D0052C31D10120FFF74FFC95
:1021B000BDE870400220FFF741BC0220FFF747FC5A
:1021C0000120FFF73BFC2B4600226EA11AE0022003
:1021D000FFF73DFC0120FFF73AFC6D496D48FFF722
:1021E000CAFC2B4600226CA10CE00120FFF72FFC5B
:1021F0000220FFF72CFC6B496648FFF7BCFC2B461E
:10220000002269A1BDE870405D48FFF7FABE70BDCD
:1022100010B50120FFF7B9FF55480078BDE8104020
:1022200071E710B5524C606840B100206070022028
:10223000FFF7ABFF2078BDE8104064E76078401CF2
:10224000F4E710B54A4C00206070A070E0700320E5
:10225000FFF79BFF2078BDE8104054E710B5454CD0
:1022600010212046FEF702F9002811D12021204636
:10227000FEF7FCF800280BD13D480178032907D070
:1022800003210170FFF7DDFFBDE81040FFF730B814
:1022900010BD70B5374D10212846FEF7E7F8344CD5
:1022A00068B120212846FEF7E1F840B120780128E6
:1022B00005D001202070FFF7ABFFFFF719F81021C0
:1022C0002846FEF7D3F8002810D020212846FEF734
:1022D000CDF800280AD12078022807D002202070EB
:1022E000FFF79FFFBDE87040FFF702B870BD10B563
:1022F000FEF703FA4FF46163B0FBF3F11C4A03FBF2
:1023000011003C235160B0FBF3F103FB1100C2E963
:10231000021010BD164805210278012A02D1426838
:10232000052A02D24278032A00D98170704710B57D
:102330000120FFF78CFBBDE810400220FFF77EBBB9
:1023400010B5FFF78BFF0A498878052801D038B10E
:1023500008E0C87830B90120C870FFF7E8FF01E055
:10236000FFF797FFFFF7C3FFBDE81040D2E700007B
:10237000F082002000180140000C014000140140D0
:1023800090000020D5FDD4DAB3E4B5E700000000EA
:1023900042950008B0000020D2D1BEADB3E4C2FA2D
:1023A00000000000423B0008BFF3B5C6C8A1D7DF5C
:1023B00000000000064C074D06E0E06840F0010315
:1023C00094E8070098471034AC42F6D3FDF7B4FE0A
:1023D00044EF000864EF000870B501EB020410F848
:1023E000015B15F0070301D110F8013B2A1106D15A
:1023F00010F8012B03E010F8016B01F8016B5B1E74
:10240000F9D12B0705D40023521E0FD401F8013B4C
:10241000FAE710F8013B02F10202A1EB030303E02B
:1024200013F8015B01F8015B521EF9D5A142D6D326
:10243000002070BD02E008C8121F08C1002AFAD1AE
:1024400070477047002001E001C1121F002AFBD134
:102450007047000000A24A04D7B402020003838040
:102460000303200303300303102303003303081383
:10247000031C1B7FFE1B03801303800303800302E6
:10248000800706400B0640130440730C602308309D
:1024900003183003101C03200F03400402800000C7
:1024A0000000CCAC001000001C0000181000183810
:1024B0003FFFFC00380000640000620000C3000021
:1024C000E1800198C0030C700C043E3000184020DD
:1024D00000011820098C10098C4C09884E1980467F
:1024E00019806431FFE030FFE0000000A3BA000073
:1024F00000000000000000000000000000000000DC
:1025000000000000000000000000C00001E0000129
:10251000E00000C00000000000000000000000C05B
:102520000001E00001E00000C00000000000000029
:10253000000000000000B3E4006000001800001C70
:102540000800081C7FFFFE00400000700000C20071
:102550000181800300C00400601FFFF00EC6300040
:10256000C62000C60000C60000C60401860401861D
:10257000040306060607FE1803FC600000000000C6
:10258000B5E70020000038000030000030001030B7
:10259000601FFFF01830601830601830601830602D
:1025A0001FFFE01830601830601830601830601F6E
:1025B000FFE01830401030040030040030040030D8
:1025C00006003FFE001FFC000000B3D800020030F0
:1025D00003801C03000E0300062308043B1C013388
:1025E000186133783133981A3F181AF318123318D8
:1025F0000433180433180C33301833F078332418AC
:102600003304183204183004183006183FFE181F1F
:10261000FC080000D5FD0000000000000000183F8D
:10262000FFFC000C00000C00000C00000C00040C6F
:1026300000070C00060C30060FF8060C00060C0014
:10264000060C00060C00060C00060C00060C00062A
:102650000C08060C1C7FFFFE000000000000D4DA0E
:1026600000200000380000300000200000600C7FD7
:10267000FFFE00C00000C2000583800703000603C0
:10268000000603000E03181E7FFC1603002603003D
:1026900046030006030006030006030006030C06BB
:1026A000FFFE060000040000D2D100000000000080
:1026B0000000C01FFFE00000C00000C01000C018F4
:1026C00000C01800C01FFFC01800C018008018000C
:1026D0000018000018000018001018001018001052
:1026E00018001818001C1FFFF80FFFF00000000072
:1026F0000000BEAD000000040030073FF806007087
:102700000C00600C80C018E18010C3802186607FBF
:10271000083832100C04200608400210003023BF95
:10272000F87C030030030000030000030001C3082D
:102730007E031C30FFFE000000000000BFF300001D
:10274000400000600000700060307FF824060FFE3B
:10275000060C000C0C000CCC000FEC001CCC001C78
:10276000CC002CCC002CCC004CCC000CCC000FCCE2
:10277000000CC8000C98000C180008300000600025
:10278000008000010000B5C604000007000006003C
:102790000806001C063FFE0640C016E0C01780C0B9
:1027A0003600C03600C03600C06600C00600C00655
:1027B00000C00600C00700C00CC0C00CE0C018601C
:1027C000C01040C02000C0200FC0400380000100A6
:1027D000B9CA0402000703800603000603000603CB
:1027E0000006660C7FF7FE060630060C30060C303D
:1027F00006143026D4303FE46030C26030C260300E
:10280000C2C030C18030C18030C3C03FC660308C90
:102810003830301E20C008000000D5CF0002002153
:1028200003803F8108337FFC330840330660320465
:102830008C34FFFE340000323FF833301831B018CA
:1028400031BFF831B01831B01831BFF8372300323A
:10285000030C30FFFE300300300300300300300370
:1028600000200300C8A10000000030007FF800181D
:102870006018187FFC1860181864181FE418186492
:10288000181864181864301862301FE2301861603C
:102890001861601861E01878C01FE1C07C63603087
:1028A0006638006C1E007008006000004000D7DF32
:1028B000001000001C000018000018000018600F35
:1028C000FFF000180000180800181C7FFFFE001021
:1028D00000001C00041800071800061860061FF00E
:1028E0000618000D18000D980008D8001878001080
:1028F0003FFE200FF8400000C2FA0020802038E0A0
:102900003030C01830D80DFFFC0830C04030C060F7
:10291000000C35FFFE14198004198009199809FF6D
:10292000FC19999819999879999819B5D819A57891
:1029300019A35819C2181984181980F81980300978
:102940000020000000000000000000000000000067
:102950000000000000000000000000000000000077
:102960000000000000000000000000000000000067
:102970000000000002000700070007000700070032
:102980000700070007000200020002000200020028
:102990000200020000000000020007000700020021
:1029A00000000000000039C039C039C0108010801C
:1029B0001080000000000000000000000000000087
:1029C0000000000000000000000000000000000007
:1029D0000000000000000000000001803180318014
:1029E00031E03F80F18031803180318031E03F80C3
:1029F000F180318031803180318030000000000072
:102A0000000000000000060006003FC06660C630FF
:102A1000C630C600C60066003E000F8007C00660D4
:102A20000630C630C630C63066603FC006000600BD
:102A300000000000000030004820CC60CC40CCC03A
:102A4000CC80CD804B003200060004000C000980D1
:102A50001A403660266066604660C660824001802B
:102A60000000000000001C00220042004200420062
:102A7000640028003000380048004C00C400C670D4
:102A8000C320C320C1C0C0C0C1C067603C300000CB
:102A90000000000000000700070007000700020018
:102AA0000200020000000000000000000000000022
:102AB0000000000000000000000000000000000016
:102AC000000000200040008001800100030003009E
:102AD00006000600060006000600060006000600C6
:102AE0000600060003000300010001800080004092
:102AF0000020400020001000180008000C000C000E
:102B00000600060006000600060006000600060095
:102B1000060006000C000C00080018001000200041
:102B20004000000000000000000004000E000E0045
:102B3000C460E4E064C0110000000000110064C043
:102B4000E4E0C4600E000E0004000000000000007D
:102B50000000000000000000000000000000000075
:102B600006000600060006007FE07FE00600060083
:102B70000600060000000000000000000000000049
:102B80000000000000000000000000000000000045
:102B90000000000000000000000000000000000035
:102BA000000000000C001E001E000E0006000C00BD
:102BB00018000000000000000000000000000000FD
:102BC00000000000000000007FE07FE00000000047
:102BD00000000000000000000000000000000000F5
:102BE00000000000000000000000000000000000E5
:102BF00000000000000000000000000000000000D5
:102C00000000000000000C001E001E000C00000070
:102C10000000000000200060004000C00080018033
:102C2000010003000200060004000C000800180068
:102C300010003000200060004000C0008000000054
:102C40000000000000000E001B003180318060C0D9
:102C500060C0C060C060C060C060C060C060C06074
:102C6000C06060C060C0318031801B000E00000079
:102C700000000000000006001E007E0006000600A6
:102C80000600060006000600060006000600060014
:102C90000600060006000600060006003FC0000011
:102CA0000000000000001F00318060C0E060E060B4
:102CB0006060006000C000C00180030006000C00DE
:102CC0001800300070006020E020FFE0FFE000000E
:102CD0000000000000000F0039C070E0706030603C
:102CE000006000C0018003000E00038000C000608F
:102CF000006000606060E060E0E071C03F000000E4
:102D00000000000000000180038003800780058030
:102D10000D8009801980118031802180618041807F
:102D2000C180FFF0018001800180018007E0000088
:102D30000000000000007FC07FC0600060006000F5
:102D4000600060006700698070C040C00060006083
:102D5000006000606060E0C0E0C071803F00000083
:102D60000000000000001F00338061C061C0C1800E
:102D7000C000C000CF00D180E0C0C0C0C060C06053
:102D8000C060C060C06060C060C031801F000000D3
:102D90000000000000007FE0FFE0C060804080C0D5
:102DA0000080018001000300030006000600060009
:102DB0000C000C000C000C000C000C000C000000BF
:102DC0000000000000001F00318060C060C060C0D3
:102DD00060C031801B000E001F00318060C0C060E9
:102DE000C060C060C060C06060C031801F00000073
:102DF0000000000000001F00318060C060C0C060A3
:102E0000C060C060C060C060606060E031601E6033
:102E100000600060306070C070C039801F0000002A
:102E2000000000000000000000000000000006009C
:102E30000F000F0006000000000000000000060068
:102E40000F000F000600000000000000000000005E
:102E5000000000000000000000000000000006006C
:102E60000F000F0006000000000000000000060038
:102E70000F000F000700030006000C000000000018
:102E80000000000000000000006000C0018003009E
:102E900006000C00180030006000C0006000300028
:102EA00018000C0006000300018000C00060000054
:102EB0000000000000000000000000000000000012
:102EC00000007FE07FE000000000000000007FE0E5
:102ED0007FE0000000000000000000000000000093
:102EE0000000000000000000C0006000300018007A
:102EF0000C0006000300018000C0006000C00180DB
:102F0000030006000C00180030006000C000000044
:102F10000000000000000F8018C03060706070601A
:102F2000206000C000C00180010003000200020018
:102F3000020002000000000002000700070002007B
:102F40000000000000001F002080404080208F20F3
:102F500099A0B1A0B1A0B1A0B1A0B1A0B1A0B1A001
:102F6000BFA09CC080008000402020401F80000047
:102F7000000000000000060006000B000B00090026
:102F80000900198019801080108030C030C03FC007
:102F900030C020406060606060606060F0F0000001
:102FA000000000000000FE006300618060C060C09F
:102FB00060C060C0618063007E00638060C060C0EC
:102FC00060606060606060C060C06180FF000000A1
:102FD0000000000000001F2031E060E06060C020C1
:102FE000C000C000C000C000C000C000C000C000E1
:102FF000C000C000C060606060C031801F00000081
:10300000000000000000FE006300618060C060C03E
:1030100060606060606060606060606060606060B0
:103020006060606060C060C061806300FE0000009E
:10303000000000000000FFE060E0606060206020B1
:1030400060006100610063007F0063006100610057
:103050006000600060206020606060E0FFE00000D1
:10306000000000000000FFE060E060606020602081
:1030700060006100610063007F0063006100610027
:10308000600060006000600060006000F000000010
:103090000000000000001E4033C060C06040C0401F
:1030A000C000C000C000C000C1E0C0C0C0C0C0C0FF
:1030B000C0C0C0C0C0C061C063C036C01CC000007A
:1030C000000000000000F1E060C060C060C060C0AF
:1030D00060C060C060C060C07FC060C060C060C0D1
:1030E00060C060C060C060C060C060C0F1E000004F
:1030F0000000000000001FE00300030003000300C5
:1031000003000300030003000300030003000300A7
:103110000300030003000300030003001FE000009E
:1031200000000000000007E00180018001800180B4
:103130000180018001800180018001800180018087
:1031400001806180F180E180C18067003E00000065
:10315000000000000000F3E0618061806300630014
:10316000660066006C006C007C007C0076007600D7
:10317000630063006180618060C060C0F1F00000A6
:10318000000000000000F0006000600060006000CF
:10319000600060006000600060006000600060002F
:1031A0006000600060206020606060E0FFE0000080
:1031B000000000000000E07060606060606070E02F
:1031C00070E070E070E079E0696069606F6066608F
:1031D000666066606060606060606060F0F0000083
:1031E000000000000000E1E060C060C070C070C07E
:1031F00070C078C068C06CC064C066C062C063C084
:1032000061C061C061C060C060C06040F04000004B
:103210000000000000001F00318060C0C060C0607E
:10322000C060C060C060C060C060C060C060C0609E
:10323000C060C060C060C06060C031801F0000001E
:10324000000000000000FE00638060C060C060609D
:103250006060606060C060C063807E00600060008D
:10326000600060006000600060006000F00000002E
:103270000000000000001F00318060C0C060C0601E
:10328000C060C060C060C060C060C060C060C0603E
:10329000C060C060CC60C660636031C01EC000709A
:1032A000000000000000FE006380618060C060C01C
:1032B00060C060C0618063807E006C006C0066004E
:1032C0006600630063006180618060C0F1E000001F
:1032D0000000000000001E4073C0C1C0C0C0C0405C
:1032E000E000700038001C000E000700038001C0E1
:1032F00000E08060C060E060F0C0D9808F00000016
:10330000000000000000FFF0E670C6308610861056
:10331000060006000600060006000600060006007D
:103320000600060006000600060006001F800000DA
:10333000000000000000F1E060C060C060C060C03C
:1033400060C060C060C060C060C060C060C060C07D
:1033500060C060C060C060C060C031801F000000FD
:10336000000000000000F1E060C060C060C060C00C
:1033700060C03180318031803180318031801B00EC
:103380001B001B001B000E000E000E0004000000BE
:10339000000000000000F0F060606060606060604D
:1033A00060606060606026402640264026402640DF
:1033B00036C036C036C019801980198019800000C7
:1033C000000000000000F0F06060606030C030C0BD
:1033D000198019800F000F00060006000F000F0073
:1033E0001980198030C030C060606060F0F000006B
:1033F000000000000000F0F06060606030C030C08D
:1034000030C01980198019800F000F0006000600D7
:103410000600060006000600060006001F800000E9
:10342000000000000000FFC0E0C0C1C08180830038
:103430000300060006000C000C0018001800300005
:10344000300060006020C020C060C0E0FFE00000ED
:10345000000007E00400040004000400040004006D
:10346000040004000400040004000400040004003C
:10347000040004000400040004000400040004002C
:1034800007E000008000C000400060002000300025
:103490001000180008000C000400060002000300E1
:1034A00001000180008000C000400060002000009A
:1034B00000007E0002000200020002000200020082
:1034C00002000200020002000200020002000200EC
:1034D00002000200020002000200020002000200DC
:1034E0007E00000006000F00198030C060604020A0
:1034F00000000000000000000000000000000000CC
:1035000000000000000000000000000000000000BB
:1035100000000000000000000000000000000000AB
:10352000000000000000000000000000000000009B
:10353000000000000000000000000000000000008B
:10354000FFF018003C000F0001C000000000000068
:10355000000000000000000000000000000000006B
:10356000000000000000000000000000000000005B
:10357000000000000000000000000000000000004B
:10358000000000003F006180F0C060C000C00FC0BC
:1035900038C060C0C0C0C0C0C0C0E3C03E60000052
:1035A000000000000000E0006000600060006000BB
:1035B000600060006F00798070C060C06060606013
:1035C00060606060606060C070C07980CF000000A3
:1035D00000000000000000000000000000000000EB
:1035E000000000001F0031C060E061E0C0C0C0000A
:1035F000C000C000C0006000606030C01F800000DC
:1036000000000000000000E000600060006000605A
:10361000006000601F6031E060E06060C060C0601A
:10362000C060C060C060606060E031E01F200000EA
:10363000000000000000000000000000000000008A
:10364000000000001F00318060C060C0C060C0602A
:10365000FFE0C000C0006000606030C01F8000005C
:1036600000000000000007C00CE018E0184018003F
:1036700018001800FF0018001800180018001800A3
:103680001800180018001800180018007E0000002C
:10369000000000000000000000000000000000002A
:1036A000000000003E6063E0C180C180C180630013
:1036B0003E0060007800CF80C1C0C060C06060C0C4
:1036C0003F8000000000E0006000600060006000DB
:1036D0006000600067006D8078C070C060C060C02E
:1036E00060C060C060C060C060C060C0F1E0000049
:1036F00000000000000006000F000F0006000000A0
:10370000000000001E00060006000600060006007D
:103710000600060006000600060006001F800000E6
:103720000000000000000300078007800300000085
:10373000000000000780018001800180018001807D
:1037400001800180018001806180F180E18063005F
:103750003E0000000000E0006000600060006000CB
:103760006000600063E06180630066006C007E00C2
:103770007600630063006180618060C0F1E000005A
:103780000000000000001E00060006000600060003
:1037900006000600060006000600060006000600F9
:1037A0000600060006000600060006001F80000056
:1037B0000000000000000000000000000000000009
:1037C00000000000EDC07FE06660666066606660D5
:1037D000666066606660666066606660F7700000DE
:1037E00000000000000000000000000000000000D9
:1037F00000000000E7006D8078C070C060C060C04D
:1038000060C060C060C060C060C060C0F1E0000027
:1038100000000000000000000000000000000000A8
:10382000000000001F00318060C060C0C060C06048
:10383000C060C060C06060C060C031801F00000018
:103840000000000000000000000000000000000078
:1038500000000000EF00798070C060C060606060B0
:10386000606060C070C079806F00600060006000C0
:10387000F000000000000000000000000000000058
:10388000000000001E4033C061C060C0C0C0C0C0A6
:10389000C0C060C061C033C01EC000C000C000C056
:1038A00001E0000000000000000000000000000037
:1038B00000000000E7806CC078E070C0600060002D
:1038C000600060006000600060006000F0000000C8
:1038D00000000000000000000000000000000000E8
:1038E000000000003F0061C0C0C0C040E0007800A0
:1038F0001F0003C000E08060C060E0C03F800000A7
:10390000000000000000000000000800180018007F
:1039100018001800FFC01800180018001800180040
:10392000180018001800186018600CC0078000000C
:103930000000000000000000000000000000000087
:1039400000000000E1C060C060C060C060C060C036
:1039500060C060C060C061C063C036C01CE00000D1
:103960000000000000000000000000000000000057
:1039700000000000F1E060C060C031803180318023
:103980001B001B001B000E000E000E0004000000B8
:103990000000000000000000000000000000000027
:1039A00000000000F0F0606060606660666036C035
:1039B00036C036C03FC019801980198019800000B8
:1039C00000000000000000000000000000000000F7
:1039D00000000000F1E060C060C031801B000E00FC
:1039E0000E000E001B00318060C060C0F1E00000DE
:1039F00000000000000000000000000000000000C7
:103A000000000000F1E060C030C0318019801980F2
:103A10000F000F000700060006000600CC00CC00D7
:103A2000780000000000000000000000000000001E
:103A3000000000007FE0406040C0018003000600FD
:103A40000C00180030006020C020C060FFE00000C3
:103A5000000001E003000600060006000600060064
:103A60000600060006000C00180018000C000600F6
:103A70000600060006000600060006000600030019
:103A800001E006000600060006000600060006002B
:103A900006000600060006000600060006000600F6
:103AA00006000600060006000600060006000600E6
:103AB000060078000C00060006000600060006005E
:103AC00006000600060003000180018003000600D6
:103AD00006000600060006000600060006000C00B0
:103AE000780000000000000000000000000000005E
:103AF00000000000000038006C30C36001C000000E
:103B000000000000000000000000000000000000B5
:103B100000000000000000000000040004000E008F
:103B20000A001B0011003180208060C04040C0604E
:103B3000FFE00000000000000000000000000000A6
:103B40000000FFFFFFFFFFFFFFFFFFFFFFFFFFFF83
:103B5000FFFFFFFFFFFFFFFFFFFFFFFFFFFFFFFF75
:103B6000FFFFFFFFFFFFFFFFFFFFFFFFFFFFFFFF65
:103B7000FFFFFFFFFFFFFFFFFFFFFFFFFFFFFFFF55
:103B8000FFFFFFFFFFFFFFFFFFFFFFFFFFFFFFFF45
:103B9000FFFFFFFFFFFFFFFFFFFFFFFFFFFFFFFF35
:103BA000FFFFFFFFFFFFFFFFFFFFFFFFFFFFFFFF25
:103BB000FFFFFFFFFFFFFFFFFFFFFFFFFFFFFFFF15
:103BC000FFFFFFFFFFFFF7BEE73CE73CE73CE73CBA
:103BD000E73CE73CE73CEF7DFFFFFFFFFFFFFFFF18
:103BE000FFFFFFFFFFFFFFFFFFFFFFFFFFFFFFFFE5
:103BF000FFFFFFFFFFFFFFFFFFFFFFFFFFFFFFFFD5
:103C0000FFFFFFFFFFFFFFFFFFFFFFFFFFFFFFFFC4
:103C1000FFFFFFFFFFFFFFFFFFFFFFFFFFFFFFFFB4
:103C2000FFFFFFFFFFFF528A6B4D738E9CF3AD7554
:103C3000B5B6BDF7BDF78430EF7DFFFFFFFFFFFF97
:103C4000FFFFFFFFFFFFFFFFFFFFFFFFFFFFFFFF84
:103C5000FFFFFFFFFFFFFFFFFFFFFFFFFFFFFFFF74
:103C6000FFFFFFFFFFFFFFFFFFFFFFFFFFFFFFFF64
:103C7000FFFFFFFFFFFFFFFFFFFFFFFFFFFFFFFF54
:103C8000FFFFFFFFFFFF3186528A4208738E8C715F
:103C90009CF39CF394B2738EE73CFFFFFFFFFFFFA2
:103CA000FFFFFFFFFFFFFFFFFFFFFFFFFFFFFFFF24
:103CB000FFFFFFFFFFFFFFFFFFFFFFFFFFFFFFFF14
:103CC000FFFFFFFFFFFFFFFFFFFFFFFFFFFFFFFF04
:103CD000FFFFFFFFFFFFFFFFFFFFFFFFFFFFFFFFF4
:103CE000FFFFFFFFFFFF3186528A42086B4D7BCFFB
:103CF00084308430738E5ACBE73CFFFFFFFFFFFF19
:103D0000FFFFFFFFFFFFFFFFFFFFFFFFFFFFFFFFC3
:103D1000FFFFFFFFFFFFFFFFFFFFFFFFFFFFFFFFB3
:103D2000FFFFFFFFFFFFFFFFFFFFFFFFFFFFFFFFA3
:103D3000FFFFFFFFFFFFFFFFFFFFF7BEEF7DDEFB93
:103D4000DEFBDEFBDEFB39C7528A42086B4D738E09
:103D50007BCF7BCF6B4D5ACBCE79E73CDEFBDEFBD6
:103D6000DEFBEF7DFFFFFFFFFFFFFFFFFFFFFFFF1A
:103D7000FFFFFFFFFFFFFFFFFFFFFFFFFFFFFFFF53
:103D8000FFFFFFFFFFFFFFFFFFFFFFFFFFFFFFFF43
:103D9000FFFFFFFFFFFFFFFFFFFF94B2C638BDF735
:103DA000BDF7BDF7BDF7C638C638C638C638C63801
:103DB000CE79E73CE73CE73CDEFBD6BAC638BDF738
:103DC000AD759CF3FFFFFFFFFFFFFFFFFFFFFFFF4E
:103DD000FFFFFFFFFFFFFFFFFFFFFFFFFFFFFFFFF3
:103DE000FFFFFFFFFFFFFFFFFFFFFFFFFFFFFFFFE3
:103DF000FFFFFFFFFFFFFFFFFFFF8430CE79C638D4
:103E0000C638CE79CE79CE79D6BAD6BAD6BAD6BA9F
:103E1000DEFBEF7DEF7DEF7DEF7DE73CDEFBD6BA8D
:103E2000C63894B2FFFFFFFFFFFFFFFFFFFFFFFF5A
:103E3000FFFFFFFFFFFFFFFFFFFFFFFFFFFFFFFF92
:103E4000FFFFFFFFFFFFFFFFFFFFFFFFFFFFFFFF82
:103E5000FFFFFFFFFFFFFFFFFFFF8C71D6BAC638E1
:103E6000C638CE79CE79CE79D6BAD6BAD6BAD6BA3F
:103E7000DEFBEF7DEF7DEF7DEF7DE73CDEFBDEFBE4
:103E8000CE799CF3FFFFFFFFFFFFFFFFFFFFFFFF68
:103E9000FFFFFFFFFFFFFFFFFFFFFFFFFFFFFFFF32
:103EA000FFFFFFFFFFFFFFFFFFFFFFFFFFFFFFFF22
:103EB000FFFFFFFFFFFFFFFFFFFF8C71D6BAC63881
:103EC000C638CE79CE79CE79D6BAD6BAD6BADEFB96
:103ED000DEFBEF7DEF7DEF7DEF7DE73CDEFBDEFB84
:103EE000CE799CF3FFFFFFFFFFFFFFFFFFFFFFFF08
:103EF000FFFFFFFFFFFFFFFFFFFFFFFFFFFFFFFFD2
:103F0000FFFFFFFFFFFFFFFFFFFFFFFFFFFFFFFFC1
:103F1000FFFFFFFFFFFFFFFFFFFF8C71DEFBC638D7
:103F2000CE79CE79CE79CE79D6BAD6BAD6BADEFBEC
:103F3000DEFBEF7DEF7DEF7DEF7DE73CD6BACE79FE
:103F4000BDF7A534FFFFFFFFFFFFFFFFFFFFFFFFF0
:103F5000FFFFFFFFFFFFFFFFFFFFFFFFFFFFFFFF71
:103F6000FFFFFFFFFFFFFFFFFFFFFFFFFFFFFFFF61
:103F7000FFFFFFFFFFFFFFFFFFFF8C71E73CCE79E4
:103F8000D6BAD6BAD6BAD6BAD6BAD6BADEFBDEFB1F
:103F9000DEFBEF7DEF7DEF7DEF7DE73CD6BACE799E
:103FA000BDF7A534FFFFFFFFFFFFFFFFFFFFFFFF90
:103FB000FFFFFFFFFFFFFFFFFFFFFFFFFFFFFFFF11
:103FC000FFFFFFFFFFFFFFFFFFFFFFFFFFFFFFFF01
:103FD000FFFFFFFFFFFFFFFFFFFF94B2EF7DD6BAA9
:103FE000D6BAD6BADEFBDEFBDEFBDEFBDEFBDEFB9B
:103FF000E73CEF7DF7BEF7BEEF7DE73CDEFBD6BAD0
:10400000C638AD75FFFFFFFFFFFFFFFFFFFFFFFF9C
:10401000FFFFFFFFFFFFFFFFFFFFFFFFFFFFFFFFB0
:10402000FFFFFFFFFFFFFFFFFFFFFFFFFFFFFFFFA0
:10403000FFFFFFFFFFFFFFFFFFFF8C71EF7DDEFB48
:10404000DEFBDEFBDEFBDEFBE73CE73CE73CE73C80
:10405000EF7DF7BEF7BEF7BEF7BEEF7DDEFBDEFB02
:10406000CE79AD75FFFFFFFFFFFFFFFFFFFFFFFFF3
:10407000FFFFFFFFFFFFFFFFFFFFFFFFFFFFFFFF50
:10408000FFFFFFFFFFFFFFFFFFFFFFFFFFFFFFFF40
:10409000FFFFFFFFFFFFFFFFFFFF94B2F7BEDEFB56
:1040A000DEFBDEFBE73CE73CE73CE73CEF7DEF7DFA
:1040B000EF7DF7BEF7BEFFFFF7BEF7BEE73CDEFBC6
:1040C000CE79B5B6FFFFFFFFFFFFFFFFFFFFFFFF4A
:1040D000FFFFFFFFFFFFFFFFFFFFFFFFFFFFFFFFF0
:1040E000FFFFFFFFFFFFFFFFFFFFFFFFFFFFFFFFE0
:1040F000FFFFFFFFFFFFFFFFFFFF94B2F7BEDEFBF6
:10410000DEFBDEFBE73CE73CE73CEF7DEF7DEF7D50
:10411000F7BEFFFFFFFFFFFFFFFFF7BEEF7DE73CAE
:10412000D6BAB5B6FFFFFFFFFFFFFFFFFFFFFFFFA0
:10413000FFFFFFFFFFFFFFFFFFFFFFFFFFFFFFFF8F
:10414000FFFFFFFFFFFFFFFFFFFFFFFFFFFFFFFF7F
:10415000FFFFFFFFFFFFFFFFFFFF94B2F7BEDEFB95
:10416000DEFBDEFBE73CE73CE73CEF7DEF7DEF7DF0
:10417000F7BEFFFFFFFFFFFFFFFFF7BEEF7DE73C4E
:10418000D6BAB5B6FFFFFFFFFFFFFFFFFFFFFFFF40
:10419000FFFFFFFFFFFFFFFFFFFFFFFFFFFFFFFF2F
:1041A000FFFFFFFFFFFFFFFFFFFFFFFFFFFFFFFF1F
:1041B000FFFFFFFFFFFFFFFFFFFF94B2F7BEDEFB35
:1041C000DEFBDEFBE73CE73CE73CEF7DEF7DEF7D90
:1041D000F7BEFFFFFFFFFFFFFFFFF7BEEF7DE73CEE
:1041E000D6BAB5B6FFFFFFFFFFFFFFFFFFFFFFFFE0
:1041F000FFFFFFFFFFFFFFFFFFFFFFFFFFFFFFFFCF
:10420000FFFFFFFFFFFFFFFFFFFFFFFFFFFFFFFFBE
:10421000FFFFFFFFFFFFFFFFFFFF94B2F7BEDEFBD4
:10422000DEFBDEFBE73CE73CE73CEF7DEF7DEF7D2F
:10423000F7BEF7BEFFFFFFFFFFFFF7BEEF7DE73CD6
:10424000D6BAB5B6FFFFFFFFFFFFFFFFFFFFFFFF7F
:10425000FFFFFFFFFFFFFFFFFFFFFFFFFFFFFFFF6E
:10426000FFFFFFFFFFFFFFFFFFFFFFFFFFFFFFFF5E
:10427000FFFFFFFFFFFFFFFFFFFF94B2F7BEDEFB74
:10428000DEFBDEFBE73CE73CE73CEF7DEF7DEF7DCF
:10429000F7BEF7BEFFFFFFFFFFFFF7BEEF7DE73C76
:1042A000D6BAB5B6FFFFFFFFFFFFFFFFFFFFFFFF1F
:1042B000FFFFFFFFFFFFFFFFFFFFFFFFFFFFFFFF0E
:1042C000FFFFFFFFFFFFFFFFFFFFFFFFFFFFFFFFFE
:1042D000FFFFFFFFFFFFFFFFFFFF94B2F7BEDEFB14
:1042E000DEFBDEFBE73CE73CE73CEF7DEF7DEF7D6F
:1042F000F7BEF7BEFFFFFFFFFFFFF7BEEF7DE73C16
:10430000D6BAB5B6FFFFFFFFFFFFFFFFFFFFFFFFBE
:10431000FFFFFFFFFFFFFFFFFFFFFFFFFFFFFFFFAD
:10432000FFFFFFFFFFFFFFFFFFFFFFFFFFFFFFFF9D
:10433000FFFFFFFFFFFFFFFFFFFF94B2F7BEDEFBB3
:10434000DEFBDEFBE73CE73CE73CEF7DEF7DEF7D0E
:10435000F7BEF7BEFFFFFFFFFFFFF7BEEF7DE73CB5
:10436000D6BAB5B6FFFFFFFFFFFFFFFFFFFFFFFF5E
:10437000FFFFFFFFFFFFFFFFFFFFFFFFFFFFFFFF4D
:10438000FFFFFFFFFFFFFFFFFFFFFFFFFFFFFFFF3D
:10439000FFFFFFFFFFFFFFFFFFFF94B2F7BEDEFB53
:1043A000DEFBDEFBE73CE73CE73CEF7DEF7DEF7DAE
:1043B000F7BEF7BEFFFFFFFFFFFFF7BEEF7DE73C55
:1043C000D6BAB5B6FFFFFFFFFFFFFFFFFFFFFFFFFE
:1043D000FFFFFFFFFFFFFFFFFFFFFFFFFFFFFFFFED
:1043E000FFFFFFFFFFFFFFFFFFFFFFFFFFFFFFFFDD
:1043F000FFFFFFFFFFFFFFFFFFFF94B2F7BEDEFBF3
:10440000DEFBDEFBE73CE73CE73CEF7DEF7DEF7D4D
:10441000F7BEF7BEFFFFFFFFFFFFF7BEEF7DE73CF4
:10442000D6BAB5B6FFFFFFFFFFFFFFFFFFFFFFFF9D
:10443000FFFFFFFFFFFFFFFFFFFFFFFFFFFFFFFF8C
:10444000FFFFFFFFFFFFFFFFFFFFFFFFFFFFFFFF7C
:10445000FFFFFFFFFFFFFFFFFFFF94B2F7BEDEFB92
:10446000DEFBDEFBE73CE73CE73CEF7DEF7DEF7DED
:10447000F7BEF7BEFFFFFFFFFFFFF7BEEF7DE73C94
:10448000D6BAB5B6FFFFFFFFFFFFFFFFFFFFFFFF3D
:10449000FFFFFFFFFFFFFFFFFFFFFFFFFFFFFFFF2C
:1044A000FFFFFFFFFFFFFFFFFFFFFFFFFFFFFFFF1C
:1044B000FFFFFFFFFFFFFFFFFFFF94B2F7BEDEFB32
:1044C000DEFBDEFBE73CE73CE73CEF7DEF7DEF7D8D
:1044D000F7BEF7BEFFFFFFFFFFFFF7BEEF7DE73C34
:1044E000D6BAB5B6FFFFFFFFFFFFFFFFFFFFFFFFDD
:1044F000FFFFFFFFFFFFFFFFFFFFFFFFFFFFFFFFCC
:10450000FFFFFFFFFFFFFFFFFFFFFFFFFFFFFFFFBB
:10451000FFFFFFFFFFFFFFFFFFFF94B2F7BEDEFBD1
:10452000DEFBDEFBE73CE73CE73CEF7DEF7DEF7D2C
:10453000F7BEF7BEFFFFFFFFFFFFF7BEEF7DE73CD3
:10454000D6BAB5B6FFFFFFFFFFFFFFFFFFFFFFFF7C
:10455000FFFFFFFFFFFFFFFFFFFFFFFFFFFFFFFF6B
:10456000FFFFFFFFFFFFFFFFFFFFFFFFFFFFFFFF5B
:10457000FFFFFFFFFFFFFFFFFFFF94B2F7BEDEFB71
:10458000DEFBDEFBE73CE73CE73CEF7DEF7DEF7DCC
:10459000F7BEF7BEFFFFFFFFFFFFF7BEEF7DE73C73
:1045A000D6BAB5B6FFFFFFFFFFFFFFFFFFFFFFFF1C
:1045B000FFFFFFFFFFFFFFFFFFFFFFFFFFFFFFFF0B
:1045C000FFFFFFFFFFFFFFFFFFFFFFFFFFFFFFFFFB
:1045D000FFFFFFFFFFFFFFFFFFFF94B2F7BEDEFB11
:1045E000DEFBDEFBE73CE73CE73CEF7DEF7DEF7D6C
:1045F000F7BEF7BEFFFFFFFFFFFFF7BEEF7DE73C13
:10460000D6BAB5B6FFFFFFFFFFFFFFFFFFFFFFFFBB
:10461000FFFFFFFFFFFFFFFFFFFFFFFFFFFFFFFFAA
:10462000FFFFFFFFFFFFFFFFFFFFFFFFFFFFFFFF9A
:10463000FFFFFFFFFFFFFFFFFFFF94B2F7BEDEFBB0
:10464000DEFBDEFBE73CE73CE73CEF7DEF7DEF7D0B
:10465000F7BEF7BEFFFFFFFFFFFFF7BEEF7DE73CB2
:10466000D6BAB5B6FFFFFFFFFFFFFFFFFFFFFFFF5B
:10467000FFFFFFFFFFFFFFFFFFFFFFFFFFFFFFFF4A
:10468000FFFFFFFFFFFFFFFFFFFFFFFFFFFFFFFF3A
:10469000FFFFFFFFFFFFFFFFFFFF94B2F7BEDEFB50
:1046A000DEFBDEFBE73CE73CE73CEF7DEF7DEF7DAB
:1046B000F7BEF7BEFFFFFFFFFFFFF7BEEF7DE73C52
:1046C000D6BAB5B6FFFFFFFFFFFFFFFFFFFFFFFFFB
:1046D000FFFFFFFFFFFFFFFFFFFFFFFFFFFFFFFFEA
:1046E000FFFFFFFFFFFFFFFFFFFFFFFFFFFFFFFFDA
:1046F000FFFFFFFFFFFFFFFFFFFF94B2F7BEDEFBF0
:10470000DEFBDEFBE73CE73CE73CEF7DEF7DEF7D4A
:10471000F7BEF7BEFFFFFFFFFFFFF7BEEF7DE73CF1
:10472000D6BAB5B6FFFFFFFFFFFFFFFFFFFFFFFF9A
:10473000FFFFFFFFFFFFFFFFFFFFFFFFFFFFFFFF89
:10474000FFFFFFFFFFFFFFFFFFFFFFFFFFFFFFFF79
:10475000FFFFFFFFFFFFFFFFFFFF8C71EF7DDEFB21
:10476000DEFBDEFBE73CE73CE73CEF7DEF7DEF7DEA
:10477000F7BEF7BEF7BEFFFFF7BEF7BEEF7DE73C23
:10478000D6BAB5B6FFFFFFFFFFFFFFFFFFFFFFFF3A
:10479000FFFFFFFFFFFFFFFFFFFFFFFFFFFFFFFF29
:1047A000FFFFFFFFFFFFFFFFFFFFFFFFFFFFFFFF19
:1047B000FFFFFFFFFFFFFFFFFFFF94B2EF7DDEFB78
:1047C000DEFBDEFBDEFBE73CE73CE73CEF7DEF7D1D
:1047D000EF7DF7BEF7BEF7BEF7BEEF7DEF7DE73C9E
:1047E000D6BAB5B6FFFFFFFFFFFFFFFFFFFFFFFFDA
:1047F000FFFFFFFFFFFFFFFFFFFFFFFFFFFFFFFFC9
:10480000FFFFFFFFFFFFFFFFFFFFFFFFFFFFFFFFB8
:10481000FFFFFFFFFFFFFFFFFFFF8C71EF7DD6BAA9
:10482000DEFBDEFBDEFBE73CE73CE73CEF7DEF7DBC
:10483000EF7DF7BEF7BEF7BEF7BEEF7DE73CE73C86
:10484000CE79B5B6FFFFFFFFFFFFFFFFFFFFFFFFC2
:10485000FFFFFFFFFFFFFFFFFFFFFFFFFFFFFFFF68
:10486000FFFFFFFFFFFFFFFFFFFFFFFFFFFFFFFF58
:10487000FFFFFFFFFFFFFFFFFFFF8C71EF7DD6BA49
:10488000DEFBDEFBDEFBDEFBE73CE73CE73CEF7DEF
:10489000EF7DEF7DF7BEF7BEEF7DEF7DE73CDEFB02
:1048A000CE79B5B6FFFFFFFFFFFFFFFFFFFFFFFF62
:1048B000FFFFFFFFFFFFFFFFFFFFFFFFFFFFFFFF08
:1048C000FFFFFFFFFFFFFFFFFFFFFFFFFFFFFFFFF8
:1048D000FFFFFFFFFFFFFFFFFFFF8C71E73CD6BA32
:1048E000C677CE77CEB8CEB8D6F8D6F9D6F9DEF9F7
:1048F000DF3AE73BE73BE77BDF3ADEF9D6B8DEFAA3
:10490000CE79AD75FFFFFFFFFFFFFFFFFFFFFFFF4A
:10491000FFFFFFFFFFFFFFFFFFFFFFFFFFFFFFFFA7
:10492000FFFFFFFFFFFFFFFFFFFFFFFFFFFFFFFF97
:10493000FFFFFFFFFFFFFFFFFFFF8C71E73CD6BAD1
:10494000C677CE77CEB8CEB8D6F8D6F9D6F9DEF996
:10495000DF3AE73BE73BE73BDF3ADEF9D6B8D6FA8A
:10496000CE79AD75FFFFFFFFFFFFFFFFFFFFFFFFEA
:10497000FFFFFFFFFFFFFFFFFFFFFFFFFFFFFFFF47
:10498000FFFFFFFFFFFFFFFFFFFFFFFFFFFFFFFF37
:10499000FFFFFFFFFFFFFFFFFFFF8C71E73CCE79BA
:1049A000C677C677CEB8CEB8D6B8D6F9D6F9DEF97E
:1049B000DEFADF3ADF3AE73BDF3ADEF9D6B8D6FA7D
:1049C000CE79AD75FFFFFFFFFFFFFFFFFFFFFFFF8A
:1049D000FFFFFFFFFFFFFFFFFFFFFFFFFFFFFFFFE7
:1049E000FFFFFFFFFFFFFFFFFFFFFFFFFFFFFFFFD7
:1049F000FFFFFFFFFFFFFFFFFFFF8C71E73CCE795A
:104A0000C677C677CE78CEB8D6B8D6F9D6F9DEF95D
:104A1000DEFADF3ADF3BE73BDF3AD6F9CEB8D6BA6B
:104A2000C638AD75FFFFFFFFFFFFFFFFFFFFFFFF72
:104A3000FFFFFFFFFFFFFFFFFFFFFFFFFFFFFFFF86
:104A4000FFFFFFFFFFFFFFFFFFFFFFFFFFFFFFFF76
:104A5000FFFFFFFFFFFFFFFFFFFF8C71DEFBCE7943
:104A6000C676C677CE78CEB8D6B8D6F9D6F9DEF9FE
:104A7000DEFADF3ADF3ADF3BDF3AD6F9CEB8D6BA14
:104A8000C638AD75FFFFFFFFFFFFFFFFFFFFFFFF12
:104A9000FFFFFFFFFFFFFFFFFFFFFFFFFFFFFFFF26
:104AA000FFFFFFFFFFFFFFFFFFFFFFFFFFFFFFFF16
:104AB000FFFFFFFFFFFFFFFFFFFF8C71DEFBCE79E3
:104AC000C637C677CE78CEB8D6B8D6F9D6F9DEFADC
:104AD000DEFADF3ADF3ADF3ADEFAD6F9CEB8D6B9F7
:104AE000C638AD75FFFFFFFFFFFFFFFFFFFFFFFFB2
:104AF000FFFFFFFFFFFFFFFFFFFFFFFFFFFFFFFFC6
:104B0000FFFFFFFFFFFFFFFFFFFFFFFFFFFFFFFFB5
:104B1000FFFFFFFFFFFFFFFFFFFF8430DEFBCE79CB
:104B2000CE79D6BAD6BAD6BADEFBDEFBE73CE73C96
:104B3000E73CE73CE73CEF7DE73CE73CDEFBD6BAF1
:104B4000C638AD75FFFFFFFFFFFFFFFFFFFFFFFF51
:104B5000FFFFFFFFFFFFFFFFFFFFFFFFFFFFFFFF65
:104B6000FFFFFFFFFFFFFFFFFFFFFFFFFFFFFFFF55
:104B7000FFFFFFFFFFFFFFFFFFFF8430DEFBCE796B
:104B8000CE79D6BAD6BAD6BADEFBDEFBDEFBE73C80
:104B9000E73CE73CE73CE73CE73CDEFBD6BAD6BA6D
:104BA000C638AD75FFFFFFFFFFFFFFFFFFFFFFFFF1
:104BB000FFFFFFFFFFFFFFFFFFFFFFFFFFFFFFFF05
:104BC000FFFFFFFFFFFFFFFFFFFFFFFFFFFFFFFFF5
:104BD000FFFFFFFFFFFFFFFFFFFFA534AD75A5340B
:104BE000A534AD75AD75B5B6B5B6BDF7BDF7C6386C
:104BF000C638C638BDF7BDF7BDF7B5B6AD75AD75EE
:104C00009CF3AD75FFFFFFFFFFFFFFFFFFFFFFFFFF
:104C1000FFFFFFFFFFFFFFFFFFFFFFFFFFFFFFFFA4
:104C2000FFFFFFFFFFFFFFFFFFFFFFFFFFFFFFFF94
:104C3000FFFFFFFFFFFFFFFFFFFFF7BEEF7DEF7DF1
:104C4000E73CDEFBDEFBD6BAD6BAD6BACE79CE7951
:104C5000CE79CE79D6BAD6BAD6BADEFBDEFBE73C41
:104C6000EF7DEF7DF7BEFFFFFFFFFFFFFFFFFFFFC1
:104C7000FFFFFFFFFFFFFFFFFFFFFFFFFFFFFFFF44
:104C8000FFFFFFFFFFFFFFFFFFFFFFFFFFFFFFFF34
:104C9000FFFFFFFFFFFFF7BEEF7DE73CDEFBDEFB24
:104CA000D6BACE79C638BDF7B5B6B5B6AD75A534AA
:104CB0009CF3A534AD75B5B6BDF7C638CE79D6BA76
:104CC000DEFBDEFBE73CF7BEFFFFFFFFFFFFFFFF62
:104CD000FFFFFFFFFFFFFFFFFFFFFFFFFFFFFFFFE4
:104CE000FFFFFFFFFFFFFFFFFFFFFFFFFFFFFFFFD4
:104CF000FFFFFFFFFFFFFFFFFFFFFFFFF7BEF7BE56
:104D0000EF7DEF7DE73CE73CDEFBD6BAD6BAD6BAFC
:104D1000D6BAD6BADEFBDEFBE73CEF7DEF7DF7BE11
:104D2000F7BEFFFFFFFFFFFFFFFFFFFFFFFFFFFFDC
:104D3000FFFFFFFFFFFFFFFFFFFFFFFFFFFFFFFF83
:104D4000FFFFFFFFFFFFFFFFFFFFFFFFFFFFFFFF73
:104D5000FFFFFFFFFFFFFFFFFFFFFFFFFFFFFFFF63
:104D6000FFFFFFFFFFFFFFFFFFFFFFFFFFFFFFFF53
:104D7000FFFFFFFFFFFFFFFFFFFFFFFFFFFFFFFF43
:104D8000FFFFFFFFFFFFFFFFFFFFFFFFFFFFFFFF33
:104D9000FFFFFFFFFFFFFFFFFFFFFFFFFFFFFFFF23
:104DA000FFFFFFFFFFFFFFFFFFFFFFFFFFFFFFFF13
:104DB000FFFFFFFFFFFFFFFFFFFFFFFFFFFFFFFF03
:104DC000FFFFFFFFFFFFF7BEE73CE73CE73CE73CA8
:104DD000E73CE73CE73CEF7DFFFFFFFFFFFFFFFF06
:104DE000FFFFFFFFFFFFFFFFFFFFFFFFFFFFFFFFD3
:104DF000FFFFFFFFFFFFFFFFFFFFFFFFFFFFFFFFC3
:104E0000FFFFFFFFFFFFFFFFFFFFFFFFFFFFFFFFB2
:104E1000FFFFFFFFFFFFFFFFFFFFFFFFFFFFFFFFA2
:104E2000FFFFFFFFFFFF528A6B4D738E9CF3AD7542
:104E3000B5B6BDF7BDF78430EF7DFFFFFFFFFFFF85
:104E4000FFFFFFFFFFFFFFFFFFFFFFFFFFFFFFFF72
:104E5000FFFFFFFFFFFFFFFFFFFFFFFFFFFFFFFF62
:104E6000FFFFFFFFFFFFFFFFFFFFFFFFFFFFFFFF52
:104E7000FFFFFFFFFFFFFFFFFFFFFFFFFFFFFFFF42
:104E8000FFFFFFFFFFFF3186528A4208738E8C714D
:104E90009CF39CF394B2738EE73CFFFFFFFFFFFF90
:104EA000FFFFFFFFFFFFFFFFFFFFFFFFFFFFFFFF12
:104EB000FFFFFFFFFFFFFFFFFFFFFFFFFFFFFFFF02
:104EC000FFFFFFFFFFFFFFFFFFFFFFFFFFFFFFFFF2
:104ED000FFFFFFFFFFFFFFFFFFFFFFFFFFFFFFFFE2
:104EE000FFFFFFFFFFFF3186528A42086B4D7BCFE9
:104EF00084308430738E5ACBE73CFFFFFFFFFFFF07
:104F0000FFFFFFFFFFFFFFFFFFFFFFFFFFFFFFFFB1
:104F1000FFFFFFFFFFFFFFFFFFFFFFFFFFFFFFFFA1
:104F2000FFFFFFFFFFFFFFFFFFFFFFFFFFFFFFFF91
:104F3000FFFFFFFFFFFFFFFFFFFFF7BEEF7DDEFB81
:104F4000DEFBDEFBDEFB39C7528A42086B4D738EF7
:104F50007BCF7BCF6B4D5ACBCE79E73CDEFBDEFBC4
:104F6000DEFBEF7DFFFFFFFFFFFFFFFFFFFFFFFF08
:104F7000FFFFFFFFFFFFFFFFFFFFFFFFFFFFFFFF41
:104F8000FFFFFFFFFFFFFFFFFFFFFFFFFFFFFFFF31
:104F9000FFFFFFFFFFFFFFFFFFFF94B2C638BDF723
:104FA000BDF7BDF7BDF7C638C638C638C638C638EF
:104FB000CE79E73CE73CE73CDEFBD6BAC638BDF726
:104FC000AD759CF3FFFFFFFFFFFFFFFFFFFFFFFF3C
:104FD000FFFFFFFFFFFFFFFFFFFFFFFFFFFFFFFFE1
:104FE000FFFFFFFFFFFFFFFFFFFFFFFFFFFFFFFFD1
:104FF000FFFFFFFFFFFFFFFFFFFF8430CE79C638C2
:10500000C638CE79CE79CE79D6BAD6BAD6BAD6BA8D
:10501000DEFBEF7DEF7DEF7DEF7DE73CDEFBD6BA7B
:10502000C63894B2FFFFFFFFFFFFFFFFFFFFFFFF48
:10503000FFFFFFFFFFFFFFFFFFFFFFFFFFFFFFFF80
:10504000FFFFFFFFFFFFFFFFFFFFFFFFFFFFFFFF70
:10505000FFFFFFFFFFFFFFFFFFFF8C71D6BAC638CF
:10506000C638CE79CE79CE79D6BAD6BAD6BAD6BA2D
:10507000DEFBEF7DEF7DEF7DEF7DE73CDEFBDEFBD2
:10508000CE799CF3FFFFFFFFFFFFFFFFFFFFFFFF56
:10509000FFFFFFFFFFFFFFFFFFFFFFFFFFFFFFFF20
:1050A000FFFFFFFFFFFFFFFFFFFFFFFFFFFFFFFF10
:1050B000FFFFFFFFFFFFFFFFFFFF8C71D6BAC6386F
:1050C000C638CE79CE79CE79D6BAD6BAD6BADEFB84
:1050D000DEFBEF7DEF7DEF7DEF7DE73CDEFBDEFB72
:1050E000CE799CF3FFFFFFFFFFFFFFFFFFFFFFFFF6
:1050F000FFFFFFFFFFFFFFFFFFFFFFFFFFFFFFFFC0
:10510000FFFFFFFFFFFFFFFFFFFFFFFFFFFFFFFFAF
:10511000FFFFFFFFFFFFFFFFFFFF8C71DEFBC638C5
:10512000CE79CE79CE79CE79D6BAD6BAD6BADEFBDA
:10513000DEFBEF7DEF7DEF7DEF7DE73CD6BACE79EC
:10514000BDF7A534FFFFFFFFFFFFFFFFFFFFFFFFDE
:10515000FFFFFFFFFFFFFFFFFFFFFFFFFFFFFFFF5F
:10516000FFFFFFFFFFFFFFFFFFFFFFFFFFFFFFFF4F
:10517000FFFFFFFFFFFFFFFFFFFF8C71E73CCE79D2
:10518000D6BAD6BAD6BAD6BAD6BAD6BADEFBDEFB0D
:10519000DEFBEF7DEF7DEF7DEF7DE73CD6BACE798C
:1051A000BDF7A534FFFFFFFFFFFFFFFFFFFFFFFF7E
:1051B000FFFFFFFFFFFFFFFFFFFFFFFFFFFFFFFFFF
:1051C000FFFFFFFFFFFFFFFFFFFFFFFFFFFFFFFFEF
:1051D000FFFFFFFFFFFFFFFFFFFF94B2EF7DD6BA97
:1051E000D6BAD6BADEFBDEFBDEFBDEFBDEFBDEFB89
:1051F000E73CEF7DF7BEF7BEEF7DE73CDEFBD6BABE
:10520000C638AD75FFFFFFFFFFFFFFFFFFFFFFFF8A
:10521000FFFFFFFFFFFFFFFFFFFFFFFFFFFFFFFF9E
:10522000FFFFFFFFFFFFFFFFFFFFFFFFFFFFFFFF8E
:10523000FFFFFFFFFFFFFFFFFFFF8C71EF7DDEFB36
:10524000DEFBDEFBDEFBDEFBE73CE73CE73CE73C6E
:10525000EF7DF7BEF7BEF7BEF7BEEF7DDEFBDEFBF0
:10526000CE79AD75FFFFFFFFFFFFFFFFFFFFFFFFE1
:10527000FFFFFFFFFFFFFFFFFFFFFFFFFFFFFFFF3E
:10528000FFFFFFFFFFFFFFFFFFFFFFFFFFFFFFFF2E
:10529000FFFFFFFFFFFFFFFFFFFF94B2F7BEDEFB44
:1052A000DEFBDEFBE73CE73CE73CE73CEF7DEF7DE8
:1052B000EF7DF7BEF7BEFFFFF7BEF7BEE73CDEFBB4
:1052C000CE79B5B6FFFFFFFFFFFFFFFFFFFFFFFF38
:1052D000FFFFFFFFFFFFFFFFFFFFFFFFFFFFFFFFDE
:1052E000FFFFFFFFFFFFFFFFFFFFFFFFFFFFFFFFCE
:1052F000FFFFFFFFFFFFFFFFFFFF94B2F7BEDEFBE4
:10530000DEFBDEFBE73CE73CE73CEF7DEF7DEF7D3E
:10531000F7BEFFFFFFFFFFFFFFFFF7BEEF7DE73C9C
:10532000D6BAB5B6FFFFFFFFFFFFFFFFFFFFFFFF8E
:10533000FFFFFFFFFFFFFFFFFFFFFFFFFFFFFFFF7D
:10534000FFFFFFFFFFFFFFFFFFFFFFFFFFFFFFFF6D
:10535000FFFFFFFFFFFFFFFFFFFF94B2F7BEDEFB83
:10536000DEFBDEFBE73CE73CE73CEF7DEF7DEF7DDE
:10537000F7BEFFFFFFFFFFFFFFFFF7BEEF7DE73C3C
:10538000D6BAB5B6FFFFFFFFFFFFFFFFFFFFFFFF2E
:10539000FFFFFFFFFFFFFFFFFFFFFFFFFFFFFFFF1D
:1053A000FFFFFFFFFFFFFFFFFFFFFFFFFFFFFFFF0D
:1053B000FFFFFFFFFFFFFFFFFFFF94B2F7BEDEFB23
:1053C000DEFBDEFBE73CE73CE73CEF7DEF7DEF7D7E
:1053D000F7BEFFFFFFFFFFFFFFFFF7BEEF7DE73CDC
:1053E000D6BAB5B6FFFFFFFFFFFFFFFFFFFFFFFFCE
:1053F000FFFFFFFFFFFFFFFFFFFFFFFFFFFFFFFFBD
:10540000FFFFFFFFFFFFFFFFFFFFFFFFFFFFFFFFAC
:10541000FFFFFFFFFFFFFFFFFFFF94B2F7BEDEFBC2
:10542000DEFBDEFBE73CE73CE73CEF7DEF7DEF7D1D
:10543000F7BEF7BEFFFFFFFFFFFFF7BEEF7DE73CC4
:10544000D6BAB5B6FFFFFFFFFFFFFFFFFFFFFFFF6D
:10545000FFFFFFFFFFFFFFFFFFFFFFFFFFFFFFFF5C
:10546000FFFFFFFFFFFFFFFFFFFFFFFFFFFFFFFF4C
:10547000FFFFFFFFFFFFFFFFFFFF94B2F7BEDEFB62
:10548000DEFBDEFBE73CE73CE73CEF7DEF7DEF7DBD
:10549000F7BEF7BEFFFFFFFFFFFFF7BEEF7DE73C64
:1054A000D6BAB5B6FFFFFFFFFFFFFFFFFFFFFFFF0D
:1054B000FFFFFFFFFFFFFFFFFFFFFFFFFFFFFFFFFC
:1054C000FFFFFFFFFFFFFFFFFFFFFFFFFFFFFFFFEC
:1054D000FFFFFFFFFFFFFFFFFFFF94B2F7BEDEFB02
:1054E000DEFBDEFBE73CE73CE73CEF7DEF7DEF7D5D
:1054F000F7BEF7BEFFFFFFFFFFFFF7BEEF7DE73C04
:10550000D6BAB5B6FFFFFFFFFFFFFFFFFFFFFFFFAC
:10551000FFFFFFFFFFFFFFFFFFFFFFFFFFFFFFFF9B
:10552000FFFFFFFFFFFFFFFFFFFFFFFFFFFFFFFF8B
:10553000FFFFFFFFFFFFFFFFFFFF94B2F7BEDEFBA1
:10554000DEFBDEFBE73CE73CE73CEF7DEF7DEF7DFC
:10555000F7BEF7BEFFFFFFFFFFFFF7BEEF7DE73CA3
:10556000D6BAB5B6FFFFFFFFFFFFFFFFFFFFFFFF4C
:10557000FFFFFFFFFFFFFFFFFFFFFFFFFFFFFFFF3B
:10558000FFFFFFFFFFFFFFFFFFFFFFFFFFFFFFFF2B
:10559000FFFFFFFFFFFFFFFFFFFF94B2F7BEDEFB41
:1055A000DEFBDEFBE73CE73CE73CEF7DEF7DEF7D9C
:1055B000F7BEF7BEFFFFFFFFFFFFF7BEEF7DE73C43
:1055C000D6BAB5B6FFFFFFFFFFFFFFFFFFFFFFFFEC
:1055D000FFFFFFFFFFFFFFFFFFFFFFFFFFFFFFFFDB
:1055E000FFFFFFFFFFFFFFFFFFFFFFFFFFFFFFFFCB
:1055F000FFFFFFFFFFFFFFFFFFFF94B2F7BEDEFBE1
:10560000DEFBDEFBE73CE73CE73CEF7DEF7DEF7D3B
:10561000F7BEF7BEFFFFFFFFFFFFF7BEEF7DE73CE2
:10562000D6BAB5B6FFFFFFFFFFFFFFFFFFFFFFFF8B
:10563000FFFFFFFFFFFFFFFFFFFFFFFFFFFFFFFF7A
:10564000FFFFFFFFFFFFFFFFFFFFFFFFFFFFFFFF6A
:10565000FFFFFFFFFFFFFFFFFFFF94B2F7BEDEFB80
:10566000DEFBDEFBE73CE73CE73CEF7DEF7DEF7DDB
:10567000F7BEF7BEFFFFFFFFFFFFF7BEEF7DE73C82
:10568000D6BAB5B6FFFFFFFFFFFFFFFFFFFFFFFF2B
:10569000FFFFFFFFFFFFFFFFFFFFFFFFFFFFFFFF1A
:1056A000FFFFFFFFFFFFFFFFFFFFFFFFFFFFFFFF0A
:1056B000FFFFFFFFFFFFFFFFFFFF94B2F7BEDEFB20
:1056C000DEFBDEFBE73CE73CE73CEF7DEF7DEF7D7B
:1056D000F7BEF7BEFFFFFFFFFFFFF7BEEF7DE73C22
:1056E000D6BAB5B6FFFFFFFFFFFFFFFFFFFFFFFFCB
:1056F000FFFFFFFFFFFFFFFFFFFFFFFFFFFFFFFFBA
:10570000FFFFFFFFFFFFFFFFFFFFFFFFFFFFFFFFA9
:10571000FFFFFFFFFFFFFFFFFFFF94B2F7BEDEFBBF
:10572000DEFBDEFBE73CE73CE73CEF7DEF7DEF7D1A
:10573000F7BEF7BEFFFFFFFFFFFFF7BEEF7DE73CC1
:10574000D6BAB5B6FFFFFFFFFFFFFFFFFFFFFFFF6A
:10575000FFFFFFFFFFFFFFFFFFFFFFFFFFFFFFFF59
:10576000FFFFFFFFFFFFFFFFFFFFFFFFFFFFFFFF49
:10577000FFFFFFFFFFFFFFFFFFFF94B2F7BEDEFB5F
:10578000DEFBDEFBE73CE73CE73CEF7DEF7DEF7DBA
:10579000F7BEF7BEFFFFFFFFFFFFF7BEEF7DE73C61
:1057A000D6BAB5B6FFFFFFFFFFFFFFFFFFFFFFFF0A
:1057B000FFFFFFFFFFFFFFFFFFFFFFFFFFFFFFFFF9
:1057C000FFFFFFFFFFFFFFFFFFFFFFFFFFFFFFFFE9
:1057D000FFFFFFFFFFFFFFFFFFFF94B2F7BEDEFBFF
:1057E000DEFBDEFBE73CE73CE73CEF7DEF7DEF7D5A
:1057F000F7BEF7BEFFFFFFFFFFFFF7BEEF7DE73C01
:10580000D6BAB5B6FFFFFFFFFFFFFFFFFFFFFFFFA9
:10581000FFFFFFFFFFFFFFFFFFFFFFFFFFFFFFFF98
:10582000FFFFFFFFFFFFFFFFFFFFFFFFFFFFFFFF88
:10583000FFFFFFFFFFFFFFFFFFFF94B2F7BEDEFB9E
:10584000DEFBDEFBE73CE73CE73CEF7DEF7DEF7DF9
:10585000F7BEF7BEFFFFFFFFFFFFF7BEEF7DE73CA0
:10586000D6BAB5B6FFFFFFFFFFFFFFFFFFFFFFFF49
:10587000FFFFFFFFFFFFFFFFFFFFFFFFFFFFFFFF38
:10588000FFFFFFFFFFFFFFFFFFFFFFFFFFFFFFFF28
:10589000FFFFFFFFFFFFFFFFFFFF94B2F7BEDEFB3E
:1058A000DEFBDEFBE73CE73CE73CEF7DEF7DEF7D99
:1058B000F7BEF7BEFFFFFFFFFFFFF7BEEF7DE73C40
:1058C000D6BAB5B6FFFFFFFFFFFFFFFFFFFFFFFFE9
:1058D000FFFFFFFFFFFFFFFFFFFFFFFFFFFFFFFFD8
:1058E000FFFFFFFFFFFFFFFFFFFFFFFFFFFFFFFFC8
:1058F000FFFFFFFFFFFFFFFFFFFF94B2F7BEDEFBDE
:10590000DEFBDEFBE73CE73CE73CEF7DEF7DEF7D38
:10591000F7BEF7BEFFFFFFFFFFFFF7BEEF7DE73CDF
:10592000D6BAB5B6FFFFFFFFFFFFFFFFFFFFFFFF88
:10593000FFFFFFFFFFFFFFFFFFFFFFFFFFFFFFFF77
:10594000FFFFFFFFFFFFFFFFFFFFFFFFFFFFFFFF67
:10595000FFFFFFFFFFFFFFFFFFFF8C71EF7DDEFB0F
:10596000DEFBDEFBE73CE73CE73CEF7DEF7DEF7DD8
:10597000F7BEF7BEF7BEFFFFF7BEF7BEEF7DE73C11
:10598000D6BAB5B6FFFFFFFFFFFFFFFFFFFFFFFF28
:10599000FFFFFFFFFFFFFFFFFFFFFFFFFFFFFFFF17
:1059A000FFFFFFFFFFFFFFFFFFFFFFFFFFFFFFFF07
:1059B000FFFFFFFFFFFFFFFFFFFF94B2EF7DDEFB66
:1059C000DEFBDEFBDEFBE73CE73CE73CEF7DEF7D0B
:1059D000EF7DF7BEF7BEF7BEF7BEEF7DEF7DE73C8C
:1059E000D6BAB5B6FFFFFFFFFFFFFFFFFFFFFFFFC8
:1059F000FFFFFFFFFFFFFFFFFFFFFFFFFFFFFFFFB7
:105A0000FFFFFFFFFFFFFFFFFFFFFFFFFFFFFFFFA6
:105A1000FFFFFFFFFFFFFFFFFFFF8C71EF7DD6BA97
:105A2000DEFBDEFBDEFBE73CE73CE73CEF7DEF7DAA
:105A3000EF7DF7BEF7BEF7BEF7BEEF7DE73CE73C74
:105A4000CE79B5B6FFFFFFFFFFFFFFFFFFFFFFFFB0
:105A5000FFFFFFFFFFFFFFFFFFFFFFFFFFFFFFFF56
:105A6000FFFFFFFFFFFFFFFFFFFFFFFFFFFFFFFF46
:105A7000FFFFFFFFFFFFFFFFFFFF8C71EF7DD6BA37
:105A8000D6BAD6FADEFBDEFBDF3BE73CE73CE77C41
:105A9000EF7CEF7DEF7DEFBDEF7DE77CE73BDEFB4D
:105AA000CE79B5B6FFFFFFFFFFFFFFFFFFFFFFFF50
:105AB000FFFFFFFFFFFFFFFFFFFFFFFFFFFFFFFFF6
:105AC000FFFFFFFFFFFFFFFFFFFFFFFFFFFFFFFFE6
:105AD000FFFFFFFFFFFFFFFFFFFF8C71E73CD6BA20
